:0300000002001EDD
:0300030002011FD8
:03000B00020134BB
:03001300020141A6
:10001B0002014CC222C2217536F775392075390A97
:10002B0075A0EF78307F14C22075350075381075C8
:10003B0037007580C0758150758C3C758AB0758D95
:10004B00FF758BFF75896175B80D75885575A8831C
:10005B00D28C75A883E5A003B47F0574F77580FF78
:10006B00F5A0E690110093F580A2A1928708B83411
:10007B00027830102006120157020116118B80F303
:10008B0005307930B70A2377000907B7061C7700CC
:10009B000907B7040C07B702087532007700020096
:1000AB00B57932B70A04C232053322C28C75A88FD8
:1000BB00E5A03023010303B47F0274F7B53608D5EE
:1000CB003905102302D2233023028009F5A0E690D4
:1000DB00110093F58008B834027830315710212085
:1000EB00E53603B47F0274F7F536102213E536209C
:1000FB00E002053020E102053120E2020532053332
:10010B00020116C28C75A88F0201168538838537BC
:10011B0082E53573C2AFC0E0E5352403F535B4098C
:10012B0003753500D0E0D2AF32758C3C758AB0DFE9
:10013B00047F14D22032C2AFC0E0D221D0E0D2AFC4
:10014B0032C2AFC0E0D222D0E0D2AF327E077D0008
:05015B00DDFEDEFA22CA
:0310000002005B90
:031003000200B632
:0310060002010ED6
:0A110000C0F9A4B0999282F8809023
:00000001FF
